:1000000015C065C364C363C362C361C360C35FC318
:100010005EC35DC35CC35BC35AC359C358C357C3F4
:1000200056C355C354C30060006A800011241FBE2C
:10003000CFE5D4E0DEBFCDBFE6E2F0E040E017C0A0
:10004000B591A59135912591059107FD0CC095912C
:100050008591EF01F92FE82F05900D92A217B307B4
:10006000D9F7FE0104C01D92A217B307E1F7EB32E6
:0C007000F40731F703D014C3F894FFCF5D
:10007C0080E0EDD290936100809360008FEF81BBA4
:10008C0087BB8BE082BB18BA87EA91E60197F1F740
:10009C0000C00000D1E011E8C0E8E7D19C01220FBC
:1000AC00331FC901880F991F880F991F880F991F3B
:1000BC00821B930B9093670080936600A6D19C01E2
:1000CC00220F331FC901880F991F880F991F880FA2
:1000DC00991F821B930B9C0190936900809368007D
:1000EC0080916600909167008E3191054CF58217D6
:1000FC00930734F5D8BB85E090E077D2B6D19C015C
:10010C00220F331FC901880F991F880F991F880F61
:10011C00991F821B930B909367008093660075D197
:10012C009C01220F331FC901880F991F880F991F3B
:10013C00880F991F821B930B909369008093680022
:10014C0080916800909169008E3191050CF064C02B
:10015C002091660030916700821793070CF061C004
:10016C00C8BB85E090E020D280D19C01220F331FC8
:10017C00C901880F991F880F991F880F991F821B1F
:10018C00930B90936700809366003FD1880F991F63
:10019C009C01220F331F220F331F220F331F281BEA
:1001AC00390BC901309369002093680020916600D7
:1001BC00309167002E3131057CF58E31910564F557
:1001CC00821B930B0E964D9738F518BB82E390E08B
:1001DC00CAD14BD19C01220F331FC901880F991F23
:1001EC00880F991F880F991F821B930B90936700A0
:1001FC00809366000AD19C01220F331FC901880F1E
:10020C00991F880F991F880F991F821B930B90932E
:10021C0069008093680041CF18BA85E090E0A3D1C3
:0A022C003CCF2E31310564F2F7CF0C
:100236000AC025D228F02AD218F0952309F034C234
:100246003EC2112416C270D1A0F3959FD1F3950F2B
:1002560050E0551F629FF001729FBB27F00DB11D44
:10026600639FAA27F00DB11DAA1F649F6627B00DD4
:10027600A11D661F829F2227B00DA11D621F739FBD
:10028600B00DA11D621F839FA00D611D221F749FCB
:100296003327A00D611D231F849F600D211D822F12
:1002A600762F6A2F11249F5750408AF0E1F0882359
:1002B6004AF0EE0FFF1FBB1F661F771F881F915066
:1002C6005040A9F79E3F510570F0EEC1D2C15F3F85
:1002D600ECF3983EDCF3869577956795B795F79599
:1002E600E7959F5FC1F7FE2B880F911D9695879521
:0402F60097F90895D7
:1002FA0081E0AED1909365008093640082E0A8D13A
:10030A0090936300809362002091640030916500AD
:10031A00809160009091610082179307B8F485E19B
:10032A0082BB2FEA8DEA91E0215080409040E1F7AC
:10033A0000C000008DE082BB2FE681E191E02150F0
:10034A0080409040E1F700C0000012BA209162009C
:10035A003091630080916000909161008217930749
:10036A00B8F485E182BB2FEA8DEA91E02150804002
:10037A009040E1F700C0000083E182BB2FE681E1F3
:10038A0091E0215080409040E1F700C0000012BA8D
:02039A000895C4
:10039C00E89409C097FB3EF4909580957095619513
:1003AC007F4F8F4F9F4F9923A9F0F92F96E9BB27C9
:1003BC009395F695879577956795B795F111F8CF45
:1003CC00FAF4BB0F11F460FF1BC06F5F7F4F8F4FB0
:1003DC009F4F16C0882311F096E911C0772321F0A6
:1003EC009EE8872F762F05C0662371F096E8862F3E
:1003FC0070E060E02AF09A95660F771F881FDAF795
:0A040C00880F9695879597F90895DB
:10041600A59AAD9A25E02A95F1F7AD989C9BFECF5B
:100426001FBC82E08EBD1DBC1CBC9C9B05C08CB550
:100436009DB581369A4EC8F36CB57DB51EBC613646
:100446008AEE780790F47695679580E090E0A3DFD2
:1004560026E933E44BE05DE335D120E030E040E0CF
:100466005FE330D127D1CB0108958EEF9FEF08953A
:10047600A59AAD9A25E02A95F1F7AD989B9BFECFFC
:100486001FBC82E08EBD1DBC1CBC9B9B05C08CB5F1
:100496009DB581369A4EC8F36CB57DB51EBC6136E6
:1004A6008AEE780790F47695679580E090E073DFA2
:1004B60026E933E44BE05DE305D120E030E040E09F
:1004C6005FE300D1F7D0CB0108958EEF9FEF08953B
:1004D60033D088F09F5790F0B92F9927B751A0F0E5
:1004E600D1F0660F771F881F991F1AF0BA95C9F7C2
:1004F60012C0B13081F0BCD0B1E00895B9C0672F09
:10050600782F8827B85F39F0B93FCCF38695779571
:100516006795B395D9F73EF490958095709561955A
:080526007F4F8F4F9F4F089596
:10052E0057FD9058440F551F59F05F3F71F0479596
:10053E00880F97FB991F61F09F3F79F0879508957B
:10054E00121613061406551FF2CF4695F1DF08C09A
:10055E00161617061806991FF1CF869571056105B7
:04056E000894089550
:10057200FF920F931F93CF93DF93181619069CF4E3
:100582008C01C0E0D0E00F2EFBE0FF2EF02DB4DE98
:10059200F2BA81EE94E00197F1F700C000002196D3
:1005A2000C171D07A1F7DF91CF911F910F91FF90BB
:0205B2000895AA
:1005B400FF920F931F93CF93DF93181619069CF4A1
:1005C4008C01C0E0D0E00F2EF3E1FF2EF02D93DE7E
:1005D400F2BA81EE94E00197F1F700C00000219691
:1005E4000C171D07A1F7DF91CF911F910F91FF9079
:0205F400089568
:1005F600FF920F931F93CF93DF93181619069CF45F
:100606008C01C0E0D0E00F2EFDE0FF2EF02D72DE53
:10061600F2BA81EE94E00197F1F700C0000021964E
:100626000C171D07A1F7DF91CF911F910F91FF9036
:02063600089525
:10063800092E0394000C11F4882352F0BB0F40F4E8
:10064800BF2B11F460FF04C06F5F7F4F8F4F9F4F28
:02065800089503
:10065A0097E896B990E497B997B1987F892B87B9AB
:0C066A00369A3699FECF84B195B1089500
:0E067600E894BB2766277727CB0197F90895F4
:0E06840000240A941616170618060906089593
:0E06920000240A941216130614060506089595
:0E06A000EC0117D015D0CE0115D0CE0114D02C
:0C06AE0097F99F6780E870E060E0089515
:0A06BA000DDF6894B111DBCF089545
:0606C4009FEF80EC089599
:0406CA00B5DDB5CF16
:0206CE0098CCC6
:0206D00008958B
:0206D200089589
:0206D400089587
:0206D600D0DC76
:00000001FF
